:020000040000fa
:080000000002040000000000f2
:020000040000fa
:04000800540300009d
:020000040000fa
:04000c005403000099
:020000040000fa
:040010005403000095
:020000040000fa
:040014005403000091
:020000040000fa
:04001800540300008d
:020000040000fa
:04001c005403000089
:020000040000fa
:040020005403000085
:020000040000fa
:040024005403000081
:020000040000fa
:04002800540300007d
:020000040000fa
:04002c005403000079
:020000040000fa
:040030005403000075
:020000040000fa
:040034005403000071
:020000040000fa
:04003800540300006d
:020000040000fa
:04003c005403000069
:020000040000fa
:040040005403000065
:020000040000fa
:040044005403000061
:020000040000fa
:04004800c8020000ea
:020000040000fa
:04004c005403000059
:020000040000fa
:040050005403000055
:020000040000fa
:04005400f8020000ae
:020000040000fa
:04005800540300004d
:020000040000fa
:04005c005403000049
:020000040000fa
:040060005403000045
:020000040000fa
:040064005403000041
:020000040000fa
:04006800540300003d
:020000040000fa
:04006c005403000039
:020000040000fa
:040070005403000035
:020000040000fa
:040074005403000031
:020000040000fa
:04007800540300002d
:020000040000fa
:04007c005403000029
:020000040000fa
:040080005403000025
:020000040000fa
:040084005403000021
:020000040000fa
:04008800540300001d
:020000040000fa
:04008c005403000019
:020000040000fa
:040090005403000015
:020000040000fa
:040094005403000011
:020000040000fa
:04009800540300000d
:020000040000fa
:04009c005403000009
:020000040000fa
:0400a0005403000005
:020000040000fa
:0400a4005403000001
:020000040000fa
:0400a80054030000fd
:020000040000fa
:0400ac0054030000f9
:020000040000fa
:0400b00054030000f5
:020000040000fa
:0400b40054030000f1
:020000040000fa
:0400b80054030000ed
:020000040000fa
:0400bc0054030000e9
:020000040000fa
:0400c00054030000e5
:020000040000fa
:0400c40054030000e1
:020000040000fa
:0400c80054030000dd
:020000040000fa
:0400cc0054030000d9
:020000040000fa
:0400d00054030000d5
:020000040000fa
:0400d40054030000d1
:020000040000fa
:0400d80054030000cd
:020000040000fa
:0400dc0054030000c9
:020000040000fa
:0400e00054030000c5
:020000040000fa
:0400e40054030000c1
:020000040000fa
:0400e80054030000bd
:020000040000fa
:0400ec0054030000b9
:020000040000fa
:0400f00054030000b5
:020000040000fa
:0400f40054030000b1
:020000040000fa
:0400f80054030000ad
:020000040000fa
:0400fc0054030000a9
:020000040000fa
:0401000054030000a4
:020000040000fa
:0401040054030000a0
:020000040000fa
:04010800540300009c
:020000040000fa
:04010c005403000098
:020000040000fa
:040110005403000094
:020000040000fa
:040114005403000090
:020000040000fa
:04011800540300008c
:020000040000fa
:04011c005403000088
:020000040000fa
:040120005403000084
:020000040000fa
:040124005403000080
:020000040000fa
:04012800540300007c
:020000040000fa
:04012c005403000078
:020000040000fa
:040130005403000074
:020000040000fa
:040134005403000070
:020000040000fa
:04013800540300006c
:020000040000fa
:04013c005403000068
:020000040000fa
:040140005403000064
:020000040000fa
:040144005403000060
:020000040000fa
:04014800540300005c
:020000040000fa
:04014c005403000058
:020000040000fa
:040150005403000054
:020000040000fa
:040154005403000050
:020000040000fa
:04015800540300004c
:020000040000fa
:04015c005403000048
:020000040000fa
:040160005403000044
:020000040000fa
:040164005403000040
:020000040000fa
:04020800540300009b
:020000040000fa
:04020c005403000097
:020000040000fa
:040210005403000093
:020000040000fa
:04021400540300008f
:020000040000fa
:04021800540300008b
:020000040000fa
:04021c005403000087
:020000040000fa
:040220005403000083
:020000040000fa
:04022400540300007f
:020000040000fa
:04022800540300007b
:020000040000fa
:04022c005403000077
:020000040000fa
:040230005403000073
:020000040000fa
:04023400540300006f
:020000040000fa
:04023800540300006b
:020000040000fa
:04023c005403000067
:020000040000fa
:040240005403000063
:020000040000fa
:04024400540300005f
:020000040000fa
:04024800c8020000e8
:020000040000fa
:04024c005403000057
:020000040000fa
:040250005403000053
:020000040000fa
:04025400f8020000ac
:020000040000fa
:04025800540300004b
:020000040000fa
:04025c005403000047
:020000040000fa
:040260005403000043
:020000040000fa
:04026400540300003f
:020000040000fa
:04026800540300003b
:020000040000fa
:04026c005403000037
:020000040000fa
:040270005403000033
:020000040000fa
:04027400540300002f
:020000040000fa
:04027800540300002b
:020000040000fa
:04027c005403000027
:020000040000fa
:040280005403000023
:020000040000fa
:04028400540300001f
:020000040000fa
:04028800540300001b
:020000040000fa
:04028c005403000017
:020000040000fa
:040290005403000013
:020000040000fa
:04029400540300000f
:020000040000fa
:04029800540300000b
:020000040000fa
:04029c005403000007
:020000040000fa
:0402a0005403000003
:020000040000fa
:0402a40054030000ff
:020000040000fa
:0402a80054030000fb
:020000040000fa
:0402ac0054030000f7
:020000040000fa
:0402b00054030000f3
:020000040000fa
:0402b40054030000ef
:020000040000fa
:0402b80054030000eb
:020000040000fa
:0402bc0054030000e7
:020000040000fa
:0402c00054030000e3
:020000040000fa
:0402c40054030000df
:020000040000fa
:0402c80054030000db
:020000040000fa
:0402cc0054030000d7
:020000040000fa
:0402d00054030000d3
:020000040000fa
:0402d40054030000cf
:020000040000fa
:0402d80054030000cb
:020000040000fa
:0402dc0054030000c7
:020000040000fa
:0402e00054030000c3
:020000040000fa
:0402e40054030000bf
:020000040000fa
:0402e80054030000bb
:020000040000fa
:0402ec0054030000b7
:020000040000fa
:0402f00054030000b3
:020000040000fa
:0402f40054030000af
:020000040000fa
:0402f80054030000ab
:020000040000fa
:0402fc0054030000a7
:020000040000fa
:0403000054030000a2
:020000040000fa
:04030400540300009e
:020000040000fa
:04030800540300009a
:020000040000fa
:04030c005403000096
:020000040000fa
:040310005403000092
:020000040000fa
:04031400540300008e
:020000040000fa
:04031800540300008a
:020000040000fa
:04031c005403000086
:020000040000fa
:040320005403000082
:020000040000fa
:04032400540300007e
:020000040000fa
:04032800540300007a
:020000040000fa
:04032c005403000076
:020000040000fa
:040330005403000072
:020000040000fa
:04033400540300006e
:020000040000fa
:04033800540300006a
:020000040000fa
:04033c005403000066
:020000040000fa
:040340005403000062
:020000040000fa
:04034400540300005e
:020000040000fa
:04034800540300005a
:020000040000fa
:04034c005403000056
:020000040000fa
:040350005403000052
:020000040000fa
:04035400540300004e
:020000040000fa
:04035800540300004a
:020000040000fa
:04035c005403000046
:020000040000fa
:040360005403000042
:020000040000fa
:04036400540300003e
:020000040000fa
:100400002f8520000e7f22000e01880000000000d2
:10041000000020000000e000020032000001200087
:100420002002880014000700d60007000000e0004a
:1004300003003a00605d2000010020000200370048
:100440000000200001002000810f70000100320038
:1004500014000700000020000000e000020032004d
:100460000000020000000000c403020000000000c1
:100470000040da000000fe004440a9000000200017
:100480000000e0000300320000002000a00188000e
:100490004440a800000006008a1f78008b1f7800e7
:1004a0000000060091018800800478000000eb0045
:1004b0001a003700e284440032a0b4009905ba0063
:1004c000e284440032a0b4009906ba00e2844400f9
:1004d00032a0b4000006eb00476fde00fd07b2005b
:1004e000636ce10003003a00ebff07000000eb0043
:1004f0000a003700606ce10004003a00005deb0088
:100500008b05e900fdff3e00040037006168e10053
:10051000010032000086eb000b00070019c7ba008b
:100520001905ba000e04e00003003a000a00e000da
:10053000e0ff3a0000000600fe07b2009e018800be
:100540008a047800f5ff3700395dba008b05e900b1
:100550000c003200295dba008b05e900080032006a
:100560000c00e00003003a00e284440032a0b40032
:10057000f5ff370019ddba008b05e900faff3a00f4
:100580008904e800e184440032a0b40000000600c1
:10059000809fbe003400f80000002000a001880009
:1005a0000000fa009500a900501680004500de000a
:1005b000614060000004a200614060000080fb0018
:1005c000610060004500dd00611680000150a1005f
:1005d00001007000601688008500a9009500a80041
:1005e0000080fa003400f9004f00be000040060011
:1005f000809fbe00821f78000000fa009560a9006d
:100600008560a900301180000040780008e8b7003c
:10061000604080000000e0000e003a008180200071
:100620009140780030c7b30080cf500009003a00f5
:1006300060408000828020001241780021832000e9
:1006400082707800604080000000e8006040880010
:1006500010003700604080000000e0000d00320014
:1006600060408000828020001241780021832000b9
:1006700082707800604080000000e80060408800e0
:100680006140800000022000808f500001003a008d
:100690000c28ef009560a8000080fa004f01780058
:1006a0004f00be00004006000040da000000fe00df
:1006b0006419880087198800620260009319880015
:1006c000221988001119880000198800d0ff2f0016
:1006d0002003b60000007200001988000000060028
:1006e000013020000080fb00000040006100780025
:1006f000000006003019880041198800000006003b
:100700008500a900e700600082ff2f0068006000fc
:1007100043058000030161004300de000281700098
:1007200061006000420588004800dd00f1ef2f0005
:10073000a20480008280600081007000a104880013
:10074000000006000a21ef00710888009008880068
:1007500000000600001020002202b6000000e900a0
:100760004f00de000000060001118000e6806000fe
:10077000e68f500001003200f00fb2002011880017
:08078000000006000000050066
:020000040000fa
:100788000000fa00240007003c00070043000700af
:100798000a28ef0007003700504080002181200020
:1007a8000041eb0082707800504080000000e800b3
:1007b8005040880050408000ff0f5000f6ff340082
:1007c8002081200031c7b30001487800a10007004c
:1007d80071408000800c2000808f5000020036009d
:1007e800ec000700f9ff37005116800000022000d6
:1007f800008060000000e00005003200c8c2a900c7
:100808003b0007007f000700ce000700efff37001e
:10081800c8c2a900edff37000000fa00c002a80016
:10082800c022a800c042a800c8a2a800c942a800c7
:10083800c962a800c982a800c9a2a800c8c2a900a4
:10084800c8e2a9002135800000fe2f00008060006a
:100858000030a000203588006ac0a800413680001a
:10086800f00f2e0080806000003020000100700032
:10087800403688000080fa00000006000000fa00f8
:100888008080eb00d0f92f00acff070090ff2f000d
:1008980099ff07000080fa00000006000000fa0037
:1008a8009580a9008560a9002002a9000111800097
:1008b80090ff2f0000806000001188002062a900ce
:1008c8002082a90020a2a9002162a80021e2a80094
:1008d80023a2a90023e2a9002342a80010002000b7
:1008e800401188009560a8000080fa00000006000a
:1008f8000000fa008003eb000003eb008002eb002d
:10090800e4ff2f0083ff2f000081eb00e1bf2000f0
:10091800f0cf270064ff070001f62f000000eb006e
:1009280072ff070021e3a800000000000019800002
:10093800610060000000e000fcff32000040eb00b6
:1009480065ff07000040880021e3a9008003eb0051
:100958000003eb008002eb00d4ff2f0083ff2f0081
:100968000081eb00e1bf2000f0cf27004eff070019
:1009780011f62f000000eb005cff070021e3a80040
:100988000000000000198000610060000000e00025
:10099800fcff32000040eb004fff070010408800ca
:1009a80021e3a9008003eb000003eb008002eb00c9
:1009b800b4ff2f0083ff2f000081eb00e1bf200070
:1009c800f0cf270038ff070021f62f000000eb00ca
:1009d80046ff070021e3a80000000000001980007e
:1009e800610060000000e000fcff32000040eb0006
:1009f80039ff07002040880021e3a9000080fa00a1
:100a0800000006000000fa00511680000080200057
:100a1800008060000000e0000300320010002000a9
:100a2800304088000900370051168000004020003f
:100a3800008060000000e000030032002000200079
:100a480030408800010037000628ef000080fa00d7
:100a5800000006000000fa00004080004800de00a8
:100a680080407800308120000148780000408000f4
:100a780080407800408120000148780010408000c4
:100a88004800de008040780050812000014878004e
:100a98001040800080407800608120000148780084
:100aa800204080004800de008040780070812000ef
:100ab8000148780020408000804078008081200034
:100ac8000148780030832000104078000080fb0047
:100ad800c800dd0040832000104078000080fb0043
:100ae80000804000504088006082200011c0b300a0
:100af8000148780060842000104078000080fb00e6
:100b080080408800804080000000e0000200320041
:100b18000e28ef0006003700804080000000e0004b
:100b280003003a00704080000000e8007040880030
:100b3800608420008040eb00014878000080fa00c3
:100b4800000006000000fa000a28ef000c00370039
:100b58005040800021812000614078000080fb0027
:100b6800fffe070000000000f8fe07000004e00098
:100b7800fdff3a00504080000000e8005040880027
:100b880050408000ff0f5000f1ff34000080fa0051
:100b9800000006000000fa00ccc2a8000080fa009d
:040ba8000000060043
:020000040000fa
:100bac0012080000400000000000000000080000d7
:0c0bbc001200000000000000000000001b
:020000040000fa
:0200000401f009
:04000c0000000000f0
:020000040000fa
:0200000401f009
:040010008300000069
:020000040000fa
:0200000401f009
:0400140040000000a8
:020000040000fa
:0200000401f009
:04001800e000000004
:020000040000fa
:0200000401f009
:04001c00c30000001d
:00000001FF
